:020000040800F2
:10000000D005002001010008090100080B010008CB
:100010000D0100080F010008110100080000000098
:1000200000000000000000000000000013010008B4
:100030001501000800000000170100081901000860
:100040001B0100081B0100081B0100081B01000820
:100050001B0100081B0100085D0900087509000864
:100060008D090008C9090008E10900081B01000802
:100070001B0100081B0100081B0100081B010008F0
:100080001B0100081B0100081B0100081B010008E0
:100090001B0100081B0100081B0100081D0A0008C5
:1000A0001B0100081B0100081B0100081B010008C0
:1000B0007D1700089D170008F91800081B010008AB
:1000C0001B0100081B0100081B0100081B010008A0
:1000D0001B010008811B00089D1B0008B91B0008BC
:1000E0001B0100081B0100081B010008DFF80CD0F1
:1000F00000F0F6FB00480047C9270008D0050020A3
:100100000648804706480047FEE7FEE7FEE7FEE7B1
:10011000FEE7FEE7FEE7FEE7FEE7FEE7DD14000888
:10012000ED000008F0B480EA0102D40F4200B2EB07
:10013000410F02D20246084611464A0042D0C30D82
:10014000DDB2C1F3C752AD1A202D35DAC1F3160165
:1001500041F4000204B15242C5F1200602FA06F150
:100160002A411044B3EBD05F23D0C4B1012DA0EBE2
:10017000C35009DCF0BC4FF0004202EAC352DBB2CC
:1001800000F5000000F00ABB400000F1807000EBB9
:10019000C350A0F1807040EAD170490009E04908DD
:1001A00041EAC071A0EBC35000F50000400800EB2D
:1001B000C350F0BC00F0E9BA6142012202EB4101F8
:1001C000001BF6E7F0BC704781F00041AAE780F021
:1001D0000040A7E780EA010210B502F000434000AA
:1001E00022D04A001FD0010E01EB1261C0F356006D
:1001F000C2F3560240F4000042F40002A0FB0220C9
:1002000000047F39140400D0401C50EA124001D48D
:100210004000491EC2B20C0604EBD010401C40083E
:10022000802A02D003E0002010BD20F00100002948
:1002300000DA0020184310BD30B480EA010202F059
:10024000004530F0004221F0004013D090B1C30DC2
:10025000D40DC2F31601C0F31600E41A41F40001F4
:1002600040F400027D34914201D3641C00E0490057
:10027000002C02DA30BC002070474FF4000000234D
:10028000914201D3891A034340084FEA4101F7D153
:1002900051B1914202D14FF0004105E002D24FF03E
:1002A000010101E06FF0010103EBC450284430BCB0
:1002B00000F06BBA2DE9FE4F804681EA0300C00FC3
:1002C0000C46009021F0004123F00045B8EB0200FD
:1002D000A94105D24046214690461C460B4602469F
:1002E00023F00040104347D0270DC7F30A00C3F3A3
:1002F0000A510290401A019040286BDAC3F31300B0
:1003000040F4801B0098924620B10023D2EB030AF0
:1003100063EB0B0B01985946C0F14002504600F0C8
:1003200003FA06460D4650465946019A00F01BFA5C
:1003300010EB08006141002487EA115284EAE77358
:100340001A4340D0009A62B3019A012A4FEA075239
:1003500015DC001B61EB02014FF0004202EA07527C
:10036000CDE90042001C41F5801132462B4600F0D9
:1003700052FA03B0BDE8F08F40462146F9E7001B72
:1003800061EB0201001C41F5801300185B4120184D
:10039000A2F5001747EB030140EAD570B6196D418D
:1003A00011E06D084FEA360645EAC0754FEA07527C
:1003B000001B61EB0201001C41F5801149084FEA66
:1003C00030000019514132462B4603B0BDE8F04FD2
:1003D00000F012BA0098012240000023D0EB020284
:1003E00063EBE073009821464FEAE074B8EB00003D
:1003F00061EB0401E9E783F000435BE781F0004132
:1004000058E72DE9FE4F81EA030404F0004421F08F
:10041000004100944FF0000B23F0004350EA010428
:100420005ED052EA03045BD0C3F30A54C1F30A5509
:100430002C44A4F2F3340194A0FB0254C1F3130141
:1004400041F48011C3F3130343F4801301FB02440E
:1004500000FB034E840A970A44EA815447EA835713
:10046000A4FB076802958D0A05FB07854FEA932CCC
:1004700004FB0C542705029D4FEA065847EA16373D
:10048000B5EB08056EEB070C870E920E47EA811755
:1004900042EA8312A7FB0201B6EB0B0164EB0004F6
:1004A0002B0D43EA0C335E1844EB1C50DA465146E0
:1004B000E7FB0201C5F313044FEA0B3343EA14537D
:1004C0004FEA0432019C43EA0603A4F10C040294AF
:1004D000009CCDE900B400F09EF903B0BDE8F08FB8
:1004E00000200146F9E72DE9F04D81EA030404F00C
:1004F000004B21F0004514464FF0000A23F0004164
:1005000050EA050220D054EA01021DD0C5F30A5773
:100510000246C5F31303C1F31300C1F30A5640F4B6
:10052000801543F48013A7EB0608101BD64608F28B
:10053000FD3873EB050002D308F1010801E09218C1
:100540005B41B8F1000F03DA00200146BDE8F08DF1
:1005500000204FF48011064684460EE0171B73EB13
:10056000050705D3121B63EB050306434CEA010C98
:1005700049084FEA300092185B4150EA0107EDD17B
:1005800052EA030012D082EA040083EA050108431C
:1005900005D0101BAB4106D20122002306E0002249
:1005A0004FF0004302E06FF0010253101AEB060017
:1005B0004CEB085110EB0A0041EB0B01BDE8F04D8C
:1005C00000F01AB9C10F80EAE0700844CA07962308
:1005D000002100F0E3B896230022114600F0DEB8B7
:1005E0000EB5C10F80EAE0700844CA07002140F24E
:1005F00033438DE80E000A460B4600F00CF903B0B9
:1006000000BD0EB540F2334102910021CDE9001149
:100610000A460B4600F0FFF803B000BD00F00042B0
:1006200020F00040C10DC0F3160040F400007F2907
:1006300001DA00207047962903DCC1F19601C84019
:1006400001E096398840002AF4D04042704720F0FB
:100650000040C10DC0F3160040F400007F2901DA0C
:1006600000207047962903DCC1F19601C84070470D
:1006700096398840704700F0004230F000400AD0C0
:10068000C10D01F56071C0F3160042EA0151C208C4
:1006900040071143704700200146704701F00043B6
:1006A00030B421F0004150EA010206D00A0DA2F553
:1006B0006072C1F31301002A02DC30BC00207047D5
:1006C000440F44EAC104C100E01830BC00EBC25042
:1006D00000F05BB8002801DBC0F10040002901DB1D
:1006E000C1F1004181427047002801DBC0F10040A8
:1006F000002901DBC1F100418842704730B50B464B
:10070000014600202022012409E021FA02F59D4241
:1007100005D303FA02F5491B04FA02F52844151E15
:10072000A2F10102F1DC30BD202A04DB203A00FAFC
:1007300002F1002070479140C2F1200320FA03F338
:10074000194390407047202A04DB203A21FA02F036
:100750000021704721FA02F3D040C2F120029140FB
:10076000084319467047202A06DBCB17203A41FA86
:1007700002F043EAE07306E041FA02F3D040C2F12E
:10078000200291400843194670470029A8BF7047CE
:10079000401C490008BF20F00100704710B4B0FAB7
:1007A00080FC00FA0CF050EA010404BF10BC704752
:1007B00049B1CCF1200421FA04F411FA0CF118BF6C
:1007C000012121430843A3EB0C01CB1D4FEA00613B
:1007D0004FEA102042BF002010BC704700EBC3500E
:1007E00010440029A4BF10BC7047401C490008BF3A
:1007F00020F0010010BC704710B5141E73F1000406
:1008000008DA401C41F1000192185B411A4301D102
:1008100020F0010010BD2DE9F04D92469B4611B12C
:10082000B1FA81F202E0B0FA80F220329046FFF78E
:100830007BFF04460F4640EA0A0041EA0B0153469B
:100840005A46084313D0114653EA010019D0C8F1A3
:1008500040025046FFF777FF05460E465046594680
:100860004246FFF761FF084305D0012004E020461F
:100870003946BDE8F08D0020054346EAE0762C437A
:1008800037430A986305E40AA0EB08000022FD0A3A
:1008900044EA47540A3002D500200146E9E7010541
:1008A00010196941DDE9084500196941BDE8F04DBD
:1008B000A2E770B521F0004303430CD0C1F30A5501
:1008C0000024D5EB040564EB0403D617AD1AB3413D
:1008D00002DB0020014670BD201841EB025170BDC3
:1008E000064C074D06E0E06840F0010394E807007D
:1008F00098471034AC42F6D3FFF7FCFB00350008F4
:100900002035000870B58C1810F8015B15F007034E
:1009100001D110F8013B2A1106D110F8012B03E098
:1009200010F8016B01F8016B5B1EF9D12B0705D4A0
:100930000023521E0DD401F8013BFAE710F8013BE9
:10094000CB1A921C03E013F8015B01F8015B521E05
:10095000F9D5A142D8D3002070BD0000044800683A
:1009600000F0010010B1012001490860704700004B
:10097000140401400448006800F0020010B1022095
:1009800001490860704700001404014010B50C488C
:10099000006800F0040090B10321002001F0E6FDA2
:1009A00028B108480068401E0649086004E0054870
:1009B0000068401C0349086004200149086010BD1C
:1009C00014040140240000200448006800F00800DE
:1009D00010B108200149086070470000140401406C
:1009E00010B50C48006800F0100090B105210020FF
:1009F00001F0BCFD28B108480068401C06490860A9
:100A000004E005480068401E0349086010200149C1
:100A1000086010BD14040140280000202DE9FF5F8C
:100A2000B548006800F0200010B12020B2490860ED
:100A3000B148006800F0400010B14020AE490860A5
:100A4000AD48006800F0800000287CD000F00CFB6E
:100A500000F088F9A948B0F90000FFF7B3FD019054
:100A6000FFF709FE4FF06632A54BCDE90201FFF713
:100A70003AFD8046A34AA44BFFF7C3FC06460F4647
:100A8000A2480068FFF7F7FD824632463B46FFF773
:100A900011FC0446FFF702FE9C4908609C48B0F92F
:100AA0000000FFF78FFD0190FFF7E5FD80464FF056
:100AB0006632934BFFF717FD0646924A924BFFF7BB
:100AC000A0FC82468B4693480068FFF7D4FD52464F
:100AD0005B46CDE90201FFF7EDFB0446FFF7DEFDC3
:100AE0008C4908608C48B0F90000FFF76BFD01905D
:100AF000FFF7C1FD82464FF06632814BFFF7F3FCF2
:100B00008046804A804BFFF77CFCCDE90201834898
:100B10000068FFF7B0FD0646DDE90223FFF7CAFBD8
:100B20000446FFF7BBFD7D4908607D48B0F9000031
:100B3000FFF748FD83467B48B0F90000FFF742FD10
:100B40005946039000E0C3E0FFF776FB8246FFF7CB
:100B500092FD804601F07EF90646734A734BFFF71B
:100B600050FC0446FFF79AFD714908606C48B0F9E3
:100B70000000FFF727FD83466E48B0F90000FFF73D
:100B800021FD59460390FFF757FB8246FFF773FD9F
:100B9000804601F05FF981F000410646624A634BEE
:100BA000FFF72FFC0446FFF779FD634908606148B1
:100BB000B0F90000FFF706FD83465A48B0F900007F
:100BC000FFF700FD59460390FFF736FB8246FFF71B
:100BD00052FD064601F03EF90446534A534BFFF7D7
:100BE00010FC8046FFF75AFD544908605448B0F99C
:100BF0000000FFF7E7FC0390FFF73DFD80468946C4
:100C00005048B0F90000FFF7DDFC0390FFF733FD1B
:100C1000064642464B4601F02DFA0446424A434BF3
:100C2000FFF7EFFB8246FFF739FD4749086033487D
:100C3000B0F90000FFF7C6FC8146FFF71CFD074630
:100C40004FF066322E4BFFF74EFC0546FFF726FDB0
:100C500004462246364801683C4800F064F93C49A5
:100C600008602B48B0F90000FFF7ACFC8146FFF7A5
:100C700002FD07464FF06632214BFFF734FC054674
:100C8000FFF70CFD044622462B480168314800F06E
:100C90004AF9314908602048B0F90000FFF792FC9A
:100CA0008146FFF7E8FC07464FF06632144BFFF72A
:100CB0001AFC0546FFF7F2FC04462246224801686A
:100CC000264800F030F92649086080200A4908606B
:100CD0000948006800F4807018B14FF4807006492C
:100CE00008600548006800F4007018B14FF4007007
:100CF00001490860BDE8FF9F14040140F600002090
:100D0000666630407B14AE47E17A743FFC000020F9
:100D1000F800002000010020FA000020040100205B
:100D2000F4000020F2000020D9CEF753E3A54C4098
:100D300008010020F00000200C010020100100201C
:100D4000220100202001002028010020680000204E
:100D50001401002098000020180100203800002015
:100D60001C01002070B5032000F02CF8044604207C
:100D700000F028F8054645EA042000B20E49088034
:100D8000072000F01FF80446082000F01BF8054675
:100D900045EA042000B209490880052000F012F855
:100DA0000446062000F00EF8054645EA042000B28D
:100DB0000349088070BD00002001002022010020AE
:100DC0002401002070B5044600F06EF83C2000F0CD
:100DD0004AF800F090F8204600F045F800F08BF853
:100DE00000F078F800F060F83D2000F03CF800F0EA
:100DF00082F800F018F8054600F004F800F06AF8F0
:100E0000284670BD10B501220B21104601F092FC5E
:100E100001220A21104601F08DFC00220A21012046
:100E200001F088FC10BD70B5002501220B21104691
:100E300001F080FC002412E001220A21104601F09A
:100E400079FC0B21012001F091FB10B180202041A1
:100E5000054300220A21012001F06CFC641C082CCF
:100E6000EADB284670BD70B50546002419E08020F5
:100E70002041284028B101220B21104601F05AFCE4
:100E800004E000220B21012001F054FC01220A2180
:100E9000104601F04FFC00220A21012001F04AFC1B
:100EA000641C082CE3DB70BD10B501220B21104639
:100EB00001F040FC01220A21104601F03BFC002217
:100EC0000B21012001F036FC00220A21012001F053
:100ED00031FC10BD10B500220B21012001F02AFCCD
:100EE00001220A21104601F025FC01220B211046A7
:100EF00001F020FC10BD10B5002401220B2110468A
:100F000001F018FC01220A21104601F013FC0B210C
:100F1000012001F02BFB044600220A21012001F0F0
:100F200009FC204610BD2DE9F05F04460D4616462B
:100F30003046E16AFFF748F98046E169FFF74AF970
:100F40000746A16AFFF7EEF8A062E06AE062D4E922
:100F50000601FFF73FF98246E169FFF73BF980465A
:100F6000D4E90401FFF7DEF88346E169FFF732F9BF
:100F70008246E168FFF72BF981464146FFF7D2F838
:100F800007462168FFF7CEF8E060D4E90601FFF7D5
:100F900021F907462169FFF71AF92061D4E9060112
:100FA000FFF718F907466169FFF711F96061616899
:100FB000A069FFF7B7F8A061D4E90210FFF7B2F813
:100FC00007463946E068FFF737F92062D4E9021096
:100FD000FFF7A8F8074639466069FFF72DF9606208
:100FE0002846A16AFFF7F0F88046216AFFF7F2F879
:100FF0000746A16AFFF796F8A0622846A16AFFF7A4
:10100000E3F88046616AFFF7E5F80746E16AFFF713
:1010100089F8E0624FF07E50216AFFF7D5F8074665
:10102000E168FFF7D7F8E0604FF07E50216AFFF7E4
:10103000CBF807462169FFF7CDF82061616AE068C7
:10104000FFF7C8F807466169FFF7C1F86061616A98
:101050002069FFF7BFF80746A169FFF7B8F8A0615C
:10106000A06ABDE8F09F000070B53B2000F058F882
:1010700004463C2000F054F8054645EA042000B23E
:10108000214908803D2000F04BF804463E2000F046
:1010900047F8054645EA042000B21C4908803F2075
:1010A00000F03EF80446402000F03AF8054645EAD4
:1010B000042000B216490880432000F031F80446AD
:1010C000442000F02DF8054645EA042000B21149FD
:1010D0000880452000F024F80446462000F020F85F
:1010E000054645EA042000B20B490880472000F07D
:1010F00017F80446482000F013F8054645EA042096
:1011000000B20649088070BDF0000020F200002007
:10111000F4000020F6000020F8000020FA00002073
:1011200070B50446FFF7C0FED020FFF79CFEFFF726
:10113000E2FE2046FFF797FEFFF7DDFEFFF7CAFE4F
:10114000FFF7B2FED120FFF78EFEFFF7D4FEFFF7C8
:101150006AFE0546FFF756FEFFF7BCFE284670BD47
:10116000014607238B431A02054B18684FF6FF030D
:1011700018401043034B1843014B186070470000A0
:101180000CED00E00000FA0570B505460C460420A1
:10119000FFF7E6FF0E48005D00F0010646EA051085
:1011A000C1B20B4801552046E21704EBD26252113E
:1011B000A4EB421301229A402146E31704EBD363C8
:1011C0005B119B0003F1E023C3F8002170BD000018
:1011D00000E400E070B500240EE00021204600F09D
:1011E000C7F8002504E0002000F0E3F8681CC5B251
:1011F000802DF8DB601CC4B2082CEEDB70BD10B58E
:1012000002220821012001F0C3F902220921012054
:1012100001F0BEF901220821104601F08BFA0122EB
:101220000921104601F086FA10BD70B5054600246C
:1012300013E08020204100EA05020921012001F08D
:1012400079FA01220821104601F074FA00220821DF
:10125000012001F06FFA601CC4B2082CE9DB012206
:101260000821104601F066FA00220821012001F051
:1012700061FA70BD10B501220921104601F05AFA39
:1012800001220821104601F055FA0022092101200F
:1012900001F050FA00220821012001F04BFA10BDA4
:1012A00010B500220921012001F044FA0122082191
:1012B000104601F03FFA01220921104601F03AFAE6
:1012C00010BD70B5002406E0002500E06D1CB5F5EA
:1012D0007A7FFBD3641CB4F57A7FF5D3FFF78FFFD9
:1012E000AE2000F056F8D52000F053F8802000F032
:1012F00050F8A82000F04DF83F2000F04AF8D32025
:1013000000F047F8002000F044F8402000F041F8D9
:10131000A12000F03EF8C82000F03BF8DA2000F0F1
:1013200038F8122000F035F8812000F032F8CF2094
:1013300000F02FF8D92000F02CF8F12000F029F867
:10134000DB2000F026F8302000F023F8A42000F085
:1013500020F8A62000F01DF88D2000F01AF81420C7
:1013600000F017F8AF2000F014F8FFF733FF70BD5E
:1013700070B505460C4645F0B00000F00AF81021A3
:1013800041EA141000F005F804F00F0000F001F835
:1013900070BD10B50446FFF76DFF7820FFF745FFDD
:1013A0000020FFF742FF2046FFF73FFFFFF778FFDF
:1013B00010BD10B50446FFF75DFF7820FFF735FF3D
:1013C0004020FFF732FF2046FFF72FFFFFF768FFAF
:1013D00010BD000029B1064A92690243044B9A618C
:1013E00004E0034A92698243014B9A61704700000E
:1013F0000010024010B500F001F810BD0CB500203F
:10140000019000903348006840F480303149086012
:1014100000BF3048006800F4003000900198401C84
:101420000190009818B90198B0F5A06FF1D1294842
:10143000006800F4003010B10120009001E00020AD
:1014400000900098012843D12348006840F0100024
:10145000214908600846006820F00300086008463B
:10146000006840F0020008601A4840681949486066
:101470000846406848600846406840F4806048601C
:101480000846406820F47C1048600846406840F4F4
:10149000E81048600846006840F08070086000BFAF
:1014A0000C48006800F000700028F9D00948406836
:1014B00020F00300074948600846406840F00200F9
:1014C000486000BF0348406800F00C000828F9D1CC
:1014D0000CBD0000001002400020024010B513486F
:1014E000006840F001001149086008464068104952
:1014F00008400E494860084600680E4908400B49FC
:1015000008600846006820F48020086008464068AB
:1015100020F4FE0048604FF41F008860FFF76AFF68
:101520004FF000600449086010BD00000010024048
:101530000000FFF8FFFFF6FE08ED00E0F0B50C46F6
:10154000154600220021068C4FF6FE773E400684A9
:10155000028B018C4FF60C7632407E1C06EA031695
:101560002E433243104EB0420ED0104EB0420BD03C
:10157000B0F1804F08D00E4EB04205D00D4EB042B3
:1015800002D00D4EB04206D14FF6FD76314044F008
:101590000106314305E04FF6F576314044F001068F
:1015A000314302830184F0BD002C0140003401402E
:1015B0000004004000080040000C0040F0B50C465C
:1015C0001546002200210026078C4FF6EF7C07EA23
:1015D0000C070784028B018C4FF6FF7707EA04168D
:1015E00040F6FF473A404FF6FF7707EA03373A43A2
:1015F0004FF6FF7707EA05273A43114FB8420ED05E
:10160000104FB8420BD0B0F1804F08D00E4FB84207
:1016100005D00E4FB84202D00D4FB84206D14FF65A
:10162000DF77394046F01007394305E04FF65F7722
:10163000394044F01007394302830184F0BD0000B3
:10164000002C01400034014000040040000800402C
:10165000000C0040F0B50C46154600220021002683
:10166000078C4FF6FF6C07EA0C070784828B018C0E
:101670004FF6FF7707EA04264FF60C773A404FF60D
:10168000FF7707EA03172F433A43114FB8420ED0B2
:10169000104FB8420BD0B0F1804F08D00E4FB84277
:1016A00005D00E4FB84202D00D4FB84206D14FF6CA
:1016B000FF57394046F48077394305E04FF2FF5732
:1016C000394044F48077394382830184F0BD0000BF
:1016D000002C01400034014000040040000800409C
:1016E000000C0040F0B50C461546002200210026F3
:1016F000078C4EF6FF7C07EA0C070784828B018C6F
:101700004FF6FF7707EA043640F6FF473A404FF6B8
:10171000FF7707EA05273A434FF6FF7707EA0337D3
:101720003A43114FB8420ED0104FB8420BD0B0F12F
:10173000804F08D00E4FB84205D00E4FB84202D0AD
:101740000D4FB84206D14DF6FF77394046F4805729
:10175000394305E047F6FF57394044F48057394391
:1017600082830184F0BD0000002C01400034014060
:101770000004004000080040000C00404FF0804092
:10178000008A00F0010038B14FF08040008A20F05C
:1017900001004FF0804108827047000010B55048AA
:1017A000008800F0010000287DD04D48008820F01E
:1017B00001004B4908804B48006805287FD2DFE8CC
:1017C00000F0031330475F00012047490860002004
:1017D00046490860464908604649086001220821D8
:1017E000104600F0A7FF6AE000203F49086040F281
:1017F0001D103E4908600F203D4908600022082165
:10180000012000F097FF3B480068401C3949086000
:10181000232805DB02203349086000203549086091
:101820004DE00020304908604FF496702F49086061
:101830002F4908602F480068401C2E49086049283D
:1018400005DB03202749086000202A49086036E0AC
:101850000020254908601720244908604FF48B7048
:101860002349086023480068401C22490860352845
:1018700005DB04201B49086000201E4908601EE0AB
:101880000020194908604FF49670184908601849FB
:101890000860062000F0C5FC0446072000F0C1FCEB
:1018A0000444082000E019E000F0BBFC20440228BA
:1018B00004DC00200B4908600E49086000BF00BF2F
:1018C000094908780A490A680849096801F0BCF81A
:1018D0000348008820F001000149088010BD000085
:1018E000100400400C00002014000020180000200C
:1018F0001C0000200800002010B51948008800F0E6
:10190000010000282AD01648008820F00100144960
:10191000088014480068401C1249086001F0A4FACD
:1019200011490860114910480068FEF7D3FE05D23E
:101930000F48006810B901200D4908600D48016882
:101940000DA000F047F9074801680FA000F042F928
:101950000348008820F001000149088010BD000004
:101960001008004010000020000000200000C841C6
:101970000C00002008000020627A5F742069732048
:1019800025640D0A0000000074696D6520697320EC
:1019900025640D0A00000000CA430282704721B18D
:1019A000028842F00102028004E002884FF6FE73D2
:1019B0001A40028070470146888E70470146088FA2
:1019C000704702460020138A0B400BB1012000E053
:1019D0000020704770B505460C46244885420ED05D
:1019E000234885420BD0B5F1804F08D0214885426D
:1019F00005D02148854202D02048854200D100E030
:101A000000BF208850B92389A28861882846FFF743
:101A100095FDE188284600F035F825E02088042867
:101A20000AD12389A28861882846FFF7C7FDE1888B
:101A3000284600F030F817E0208808280AD12389CA
:101A4000A28861882846FFF705FEE188284600F055
:101A50002FF809E02389A28861882846FFF742FE13
:101A6000E188284600F02DF870BD0000002C0140F0
:101A7000003401400004004000080040000C004019
:101A800081847047028B4FF6F3731A400283028BF6
:101A90000A4302837047028B4FF2FF331A400283DE
:101AA000028B4FF6FF7303EA01231A430283704748
:101AB000828B4FF6F3731A408283828B0A438283B0
:101AC0007047828B4FF2FF331A408283828B4FF62E
:101AD000FF7303EA01231A438283704700220288BE
:101AE0001D4B98420ED01D4B98420BD0B0F1804F49
:101AF00008D01B4B984205D01A4B984202D01A4B83
:101B0000984204D14FF68F731A404B881A43174BF3
:101B1000984207D0164B984204D04FF6FF431A4024
:101B2000CB881A4302808B8883850B8803850A4BF8
:101B300098420BD0094B984208D00E4B984205D0E2
:101B40000D4B984202D00D4B984201D10B7A03867F
:101B50000123838270470000002C014000340140C3
:101B60000004004000080040000C0040001000404D
:101B70000014004000400140004401400048014082
:101B80000548008800F0200028B10348008820F0B4
:101B9000200001490880704700380140054800884E
:101BA00000F0200028B10348008820F020000149FF
:101BB00008807047004400400548008800F020007D
:101BC00028B10348008820F02000014908807047B0
:101BD000004800400FB4054B10B503A9044A029811
:101BE00000F08EF810BC5DF814FB000051250008D1
:101BF000EC000020490050EAC12018BF04204A0D23
:101C000018BF40F0010040F2FF72B2EB515F08BF15
:101C100040F00200012808BF052070472DE9F0417F
:101C20004F1E00EBC7010446D1E9000115461E46D0
:101C300037F006020DD02A463346FEF7E2FB7F1E40
:101C400004EBC703D3E90023FEF734FB37F00602A9
:101C5000F1D1022F25D0042F13D0062F18BFBDE8D5
:101C6000F0812A463346FEF7CCFBD4E90A23FEF77F
:101C700021FB2A463346FEF7C4FBD4E90823FEF7CE
:101C800019FB2A463346FEF7BCFBD4E90623FEF7D0
:101C900011FB2A463346FEF7B4FBD4E90423FEF7D2
:101CA00009FB2A463346FEF7ACFBD4E90223FEF7D4
:101CB00001FB2A463346FEF7A4FBD4E90023BDE826
:101CC000F041FEF7F7BA0122FEF7F3BDFEF7F2BAD4
:101CD000024A00201107FEF7ECBD000001FDFFFFE6
:101CE00002E008C8121F08C1002AFAD170477047E5
:101CF000002001E001C1121F002AFBD17047000043
:101D00002DE9FF4F89B09B460446002506E02528B3
:101D10000BD05A460B999047641C6D1C2078002804
:101D2000F5D10DB02846BDE8F08F0027B846012256
:101D3000474900E0074314F8013F203B02FA03F053
:101D40000842F7D120782E2819D114F8010F47F056
:101D500004072A280ED06FF02F022078A0F130015E
:101D600009290CD808EB880102EB410100EB0108BE
:101D7000641CF2E70A98641C50F8048B0A902078DF
:101D80000028CED0642808D0692806D075281ED037
:101D90005A460B9990476D1C58E00A994FF00A0972
:101DA00001C90A91002802DA40422D2102E03905DA
:101DB00004D52B218DF82010012103E0F90704D070
:101DC0002021F7E78A4608AE0DE00021FAE70A99DC
:101DD0004FF00A0901C90A91F7E74946FEF78EFC60
:101DE000303106F8011D0028F7D1ADEB060000F1F7
:101DF0002009780701D44FF00108C84502DDA8EB9F
:101E0000090000E000208046002706E008A85A46A6
:101E1000C05D0B9990476D1C7F1C5745F6DB04E0B5
:101E200030205A460B9990476D1CB8F10001A8F17B
:101E30000108F5DC05E016F8010B5A460B999047AE
:101E40006D1CB9F10001A9F10109F4DC641C65E71E
:101E5000092801002DE9F84F04460D4621F0004005
:101E600000917349814211DC7249884201DC06D13C
:101E70002CB120462946BDE8F84FFFF724BF6E4835
:101E8000002DCCBF6D496E49BDE8F88F6D49814288
:101E900011DD6D498142D8BF4FF0FF366DDD204620
:101EA0002946FFF7A7FE042808BFFFF711FF2046C9
:101EB0002946BDE8F88F6549654F25F00045814208
:101EC00033DD6449814219DD002632464FF08043FC
:101ED00020462946FEF7EEF980468A460122204632
:101EE0002946FEF7E6FC00223B46FEF784FA42460E
:101EF0005346FEF7F8FA04460D463EE0012600225E
:101F0000BA463B4620462946FEF7D4F980460F469E
:101F10000022534620462946FEF76DFA42463B46CC
:101F2000FEF7E1FA04460D4627E04B4981421BDDEE
:101F3000DFF828A102260022534620462946FEF754
:101F400060FA00223B46FEF7B5F980460F460022B4
:101F5000534620462946FEF74EFA42463B46FEF7D8
:101F6000C2FA04460D4608E0032622462B4600200E
:101F70003B49FEF7B8FA04460D4622462B4610466A
:101F80001946FEF73EFA8B46824602460B46FEF79E
:101F900038FA07460246334888460B4606217844FD
:101FA000FFF73CFE52465B46FEF72BFA82462E4870
:101FB0008B463A46434605217844FFF72FFE3A46C2
:101FC0004346FEF71EFA02460B46002E504659467F
:101FD0000CDAFEF76FF922462B46FEF712FA01B033
:101FE00022462B46BDE8F04FFEF708BAFEF762F92D
:101FF00022462B46FEF705FA1C4A7A4402EBC6033A
:10200000D3E90023FEF7F7F922462B46FEF7F3F952
:10201000174A7A4402EBC603D3E90023FEF7EEF930
:10202000009A002AB8BF81F00041BDE8F88F000097
:10203000000010440000F07F182D4454FB21F93FAC
:10204000FB21F9BF0000DC3F0000203E0000F33F11
:102050000000F03F0000E63F008003400000F83F32
:102060000000F0BF26150000E414000082140000F8
:102070004A1400002DE9F04D9446CCF1000423F001
:1020800000464CEA0404524F46EAD4749A46884605
:1020900021F00042BC4206D8454240EA050442EA2B
:1020A000D474BC4204D9BDE8F04D6246FFF70EBEC1
:1020B000AAF14055A5F17F6555EA0C040BD0022426
:1020C00004EAAA74434DDFF810E144EAD87452EAF6
:1020D000000B04D00CE0BDE8F04DFFF7BBBE002CB8
:1020E00014BF012CBDE8F08D022C30D0032C32D06F
:1020F00056EA0C0B0AD0BE4220D1BA4209D126F0D2
:10210000804622F080423346114617E000291ADB50
:1021100025E0DFF8C8B0FB44002C04BFDBE9000178
:10212000BDE8F08D012C02BFDBE9000181F0004128
:10213000BDE8F08D022C0AD0032C0CD0BA4212D18B
:10214000B8F1000F0BDA23482549BDE8F08D284689
:102150002449BDE8F08D28467146BDE8F08D1D4844
:102160002149BDE8F08D921B12153C2AC4BF1948C5
:102170001D490EDCBAF1000FBEBF12F13C0F00206A
:10218000014606DB6246FEF7AEF921F00041FFF79B
:1021900061FE002C08BFBDE8F08D012C04BF81F06A
:1021A0000041BDE8F08D114A114B022C07D0FEF71B
:1021B00022F92A46BDE8F04D0A4BFEF71CB9FEF79E
:1021C0001AF92A46BDE8F04D064BFEF717B9000094
:1021D0000000F07F182D4454FB2109C0DE130000DD
:1021E000FB21F9BFFB210940FB21F93F075C1433B8
:1021F00026A6A13C00EBC001C9004FF0E0225161CE
:10220000002191610521116100BF4FF0E0210969B2
:1022100001F480310029F8D004214FF0E02211614F
:10222000704770B504460025092C4ED2DFE804F053
:102230004D050E172029323B44000C21012000F0EF
:1022400095F908B9012500E000253EE00D210120A7
:1022500000F08CF908B9012500E0002535E00E21D9
:10226000012000F083F908B9012500E000252CE0E9
:102270000F21012000F07AF908B9012500E00025BE
:1022800023E00521012000F071F908B9012500E0E3
:1022900000251AE00D21022000F068F908B9012597
:1022A00000E0002511E00E21022000F05FF908B9DE
:1022B000012500E0002508E00F21022000F056F97A
:1022C00008B9012500E0002500BF00BF284670BD09
:1022D00010B500220121062000F010F80122032190
:1022E000002000F055F9002201210C2000F006F832
:1022F00001220521002000F04BF910BD2DE9F04727
:1023000004460E461746032194FBF1F0C11700EB7B
:1023100091718910A0EB810189064FEA11680321B0
:1023200094FBF1F0C11700EB9171C1F387052046D2
:1023300000F06AF83148806940F001002F49886157
:102340004FEAB13050F825000F2101FA08F1884317
:102350002B4941F82500032094FBF0F100FB1140CC
:1023600088B1032094FBF0F100FB1140401E0121D5
:1023700001FA00F000FA08F0214951F82510014354
:102380001F4840F82510032094FBF0F101208840FD
:102390001C49096808431B49086066B9032094FB7F
:1023A000F0F10120884017490831096808431549B0
:1023B000083108600BE0032094FBF0F10120884015
:1023C00010490C31096808430E490C31086003209C
:1023D00094FBF0F004280ADC032094FBF0F0801D4D
:1023E00000F0FF0949463846FEF7CEFE03E017210C
:1023F0003846FEF7C9FEBDE8F08700000010024035
:10240000080001400004014010B50446182C12D207
:10241000DFE804F00C12181E242A30363C42484EE5
:10242000545A60666C72787E848A909601220021EC
:10243000084600F0ADF889E001220021104600F0C6
:10244000A7F883E001220021022000F0A1F87DE03E
:1024500001221146002000F09BF877E0012211468E
:10246000104600F095F871E001221146022000F0BC
:102470008FF86BE001220221002000F089F865E06E
:1024800001220221104600F083F85FE001220221C0
:10249000084600F07DF859E001220321002000F0F9
:1024A00077F853E001220321104600F071F84DE067
:1024B00001220321022000F06BF847E001220421F1
:1024C000002000F065F841E001220421104600F0F0
:1024D0005FF83BE001220421022000F059F835E0CA
:1024E00001220521002000F053F82FE001220521F0
:1024F000104600F04DF829E001220521022000F0ED
:1025000047F823E001220621002000F041F81DE0F9
:1025100001220621104600F03BF817E001220621B7
:10252000022000F035F811E001220721002000F020
:102530002FF80BE001220721104600F029F805E0F2
:1025400001220721022000F023F800BF00BF10BDC8
:1025500000BF054A128802F04002002AF9D0C2B238
:10256000014B1B1D1A8070470038014010B5024610
:10257000064850F82200806801248C4000EA0403D9
:102580000BB1012010BD0020FCE70000C8000020B6
:1025900070B5654CA469042585402C43624DAC613F
:1025A00008295DDA614C54F8204024688E000F251C
:1025B000B540AC435D4D55F820502C601AB1032A4C
:1025C00001D0022A0FD10124944044F003048D006D
:1025D000AC40564D55F820502D682C43534D55F8BE
:1025E00020502C609FE0012A01D0042A2AD14F4CB0
:1025F00054F8204024688E000825B5402C434B4DEC
:1026000055F820502C60012A0ED1484C54F8204037
:10261000E46801258D4024EA050301248C401C4315
:10262000424D55F82050EC60042A7CD13F4C54F8C0
:102630002040E56801248C40A5433C4C54F82040E0
:10264000E56070E0042494408D00AC40374D55F8AF
:1026500020502D682C43354D55F820502C6062E0F9
:10266000324C54F820406468A1F10805AE000F25F3
:10267000B540AC432D4D55F820506C601AB1032A7B
:1026800001D0022A11D10124944044F00304A1F1A5
:102690000805AD00AC40254D55F820506D682C4321
:1026A000224D55F820506C603DE0012A01D0042AEB
:1026B0002AD11E4C54F820406468A1F10805AE00F0
:1026C0000825B5402C43194D55F820506C60012A5F
:1026D0000CD1174C256801248C4025EA0403012401
:1026E0008C401C43114D55F82050EC60042A1AD13F
:1026F0000E4C54F82040E46801258D40AC430B4D4E
:1027000055F82050EC600EE004249440A1F1080537
:10271000AD00AC40054D55F820506D682C43034D7D
:1027200055F820506C6070BD00100240C8000020B9
:102730000C08014030B57AB10D4C54F82040E468E3
:1027400001258D4024EA050301248C401C43084DDB
:1027500055F82050EC600AE0054C54F82040E4683D
:1027600001258D40AC43024D55F82050EC6030BD42
:10277000C800002010B501220C211046FFF708FF09
:1027800001220D211046FFF703FF01220E21104602
:10279000FFF7FEFE01220F211046FFF7F9FE01228E
:1027A00005211046FFF7F4FE01220D210220FFF75C
:1027B000EFFE01220E210220FFF7EAFE01220F2187
:1027C0000220FFF7E5FE10BD08B5FEF77AFD00F028
:1027D0006FF8FFF77DFD02224FF41651002000F044
:1027E000DFFD00F0B7FB00F0B7F81648164B174AAC
:1027F00001210090164800F083F91248124B134A49
:1028000001210090134800F07BF9FFF7B3FF00228D
:1028100011461620FFF772FD00220A21012000F068
:10282000E1FB01221E21022000F0DCFB0122082135
:102830001046FFF77FFF04E00748016807A0FFF795
:10284000C9F9F9E70000E0400000204100000C4217
:1028500034010020680100203400002062622069F9
:10286000732025640D0A000010B50446A2B20021B1
:10287000084600F06FFA012206210020FFF75AFFF8
:10288000002207211046FFF755FF10BD10B5044682
:10289000A2B20121002000F05DFA012200211046C1
:1028A000FFF748FF002201210846FFF743FF10BD54
:1028B00010B54FF47A720021084600F03DF900226D
:1028C00006211046FFF764FE002207211046FFF79D
:1028D0005FFE4FF47A720121002000F02DF90022F2
:1028E00011460120FFF754FE002201210846FFF7A0
:1028F0004FFE10BD70B505460C46002D08DB0120CB
:10290000114908702846FDF75DFE1049086007E090
:1029100000200D4908706842FDF754FE0B4908601D
:10292000002C08DB01200A4908702046FDF74AFE0A
:102930000849086007E00020054908706042FDF77B
:1029400041FE0449086070BD2000002034010020D1
:10295000210000206801002010B501220621104648
:10296000FFF716FE00220C211046FFF711FE002291
:1029700008210120FFF70CFE00220A210120FFF7A9
:1029800007FE10BD2DE9F0410446D4E90001FDF732
:102990001BFCA060206B01282DD1D4E90201FDF7BA
:1029A00013FC05466169FDF715FC2062A168A0696A
:1029B000FDF710FCA0624FF08040E168FDF70AFCD3
:1029C0000746A168FDF703FC06462169FDF7AAFB4F
:1029D0000546E169FDF7FEFB6062A16A206AFDF72A
:1029E000A1FB0646616AFDF79DFB0546E16AFDF71E
:1029F00099FBE06221E0206BF8B9A1686069FDF7FE
:102A0000E9FB2062A168A069FDF7E4FB0546A16A25
:102A1000FDF788FBA062D4E90201FDF7D5FB05466E
:102A2000E169FDF7D7FB6062A16A206AFDF77AFBD6
:102A30000546616AFDF776FBE062E1682161A16805
:102A4000E160BDE8F08100002DE9F04104460D464B
:102A5000164614B100F0FEFA03E031462846FFF7AF
:102A600049FF2148007830B120480068FDF7AAFDF1
:102A70001F49486006E01D4800684042FDF7A2FD7E
:102A80001B4948601B48007830B11B480068FDF7BF
:102A900099FD1A49486006E0174800684042FDF772
:102AA00091FD1649486000201049086012490860ED
:102AB0000F48FFF767FF1148FFF764FF0C4800F06D
:102AC00027F80E4800F024F80949C86AFDF7A6FD6A
:102AD0000746FFF7C9FE0949C86AFDF79FFD07468B
:102AE000FFF7D4FEBDE8F081200000202400002084
:102AF000340100202100002028000020680100206F
:102B000010B5029C016342618361C46110BD000085
:102B100010B504460749E06AFDF7E6FD01D805480F
:102B2000E0620021E06AFDF7D5FD01D80020E062F7
:102B300010BD0000005043472DE9F04104460D460A
:102B400016462846E91705EB91718910A5EB81011E
:102B5000491CCFB25148C0690121A14008434F49E7
:102B6000C8614F4890FBF6F0401E4E4951F82410C2
:102B7000888547204B4951F824100885284600F0E5
:102B800093F8012F06D0022F1ED0032F36D0042F2A
:102B900069D14DE0434850F82400008B40F06000BC
:102BA000404951F8241008833E4850F82400008B17
:102BB00040F008003B4951F82410088300203949AF
:102BC00051F8241088864EE0364850F82400008BD7
:102BD00040F4C040334951F824100883314850F87C
:102BE0002400008B40F400602E4951F82410088323
:102BF00000202C4951F82410088734E0294850F867
:102C00002400808B40F06000264951F8241088830E
:102C1000244850F82400808B40F00800214951F8E6
:102C20002410888300201F4951F8241088871AE057
:102C30001C4850F82400808B40F4C040194951F8DA
:102C400024108883174850F82400808B40F40060DB
:102C5000144951F8241088830020124951F8241097
:102C6000A1F8400000BF00BF0E4850F82400008CBF
:102C7000791E8A000121914008430A4951F8241025
:102C80000884084850F82400008840F08100054975
:102C900051F824100880BDE8F081000000100240C7
:102CA00040420F00D400002010B504460C2C4FD237
:102CB000DFE804F0060C12181E242A30363C424885
:102CC000032200210846FFF763FC41E003220121B3
:102CD0000020FFF75DFC3BE0032202210020FFF70C
:102CE00057FC35E0032211460020FFF751FC2FE08E
:102CF000032206210020FFF74BFC29E003220721D5
:102D00000020FFF745FC23E0032200210120FFF70C
:102D10003FFC1DE0032201210846FFF739FC17E0C4
:102D2000032206210120FFF733FC11E003220721D3
:102D30000120FFF72DFC0BE0032208210120FFF703
:102D400027FC05E0032209210120FFF721FC00BF39
:102D500000BF10BD2DE9F84F04460D461746284622
:102D6000E91705EB91718910A5EB8101491C01F070
:102D7000FF084CF25030874200DB0746384850F8D5
:102D80002400868DB8F1010F09D0B8F1020F1DD0D3
:102D9000B8F1030F31D0B8F1040F5DD144E0701CDD
:102DA000FDF710FC83463846FDF715FC2D490090D1
:102DB000FDF742FA82465946FDF70CFA8146FDF7C7
:102DC00046FC274951F82410888645E0701CFDF721
:102DD000F9FB00903846FDF7FEFB83462149FDF7DD
:102DE0002BFA82460099FDF7F5F98146FDF72FFC95
:102DF0001B4951F8241008872EE0701CFDF7E2FBF8
:102E000000903846FDF7E7FB83461649FDF714FAB4
:102E100082460099FDF7DEF98146FDF718FC10495E
:102E200051F82410888717E0701CFDF7CBFB009049
:102E30003846FDF7D0FB83460A49FDF7FDF9824687
:102E40000099FDF7C7F98146FDF701FC044951F8E7
:102E50002410A1F8400000BF00BFBDE8F88F0000BB
:102E6000D4000020005043472DE9F04700213348AB
:102E7000FEF706FE02213148FEF78EFD04212F48A1
:102E8000FEF78AFD01212D48FEF789FD01220B2165
:102E90000020FFF74FFC0A20FFF7ACF900220B21BE
:102EA0001046FFF747FC01212548FEF778FD06E0B4
:102EB0002448006840F2CB71884200D905E0022125
:102EC0001E48FEF77EFD0028F2D000BF06E01E4837
:102ED000006840F2CB71884200D905E00421174810
:102EE000FEF76FFD0028F2D000BF00211448FEF766
:102EF00056FD00211248FEF7C3FD0020124908606C
:102F0000104908600D48FEF756FD04460B48FEF7D1
:102F100055FD0546281BFDF755FB81460B49FDF77E
:102F200059F980460A49FDF755F907464FF08041A7
:102F3000FDF782F906463046BDE8F087002C0140D7
:102F4000000C00402C0100203001002017B7D138C0
:102F50000000AA4300B587B00121C802FEF73AFA83
:102F60000020ADF812004FF6FF70ADF814004720B6
:102F7000ADF8100000208DF8180004A91848FEF7DD
:102F8000ADFD042208210020FFF702FB0020ADF870
:102F90000400ADF80C00ADF80600ADF80A00012001
:102FA000ADF8080001A90E48FEF714FD0420ADF8A5
:102FB00004000020ADF80C000220ADF8060000204F
:102FC000ADF80A000220ADF8080001A90448FEF798
:102FD00001FD00220B211046FFF7DAFA07B000BD11
:102FE000002C014070B504460D4616461748C069CE
:102FF0000121A14008431549C86105EB8500400047
:10300000401E134951F82410888541F61F4010498D
:1030100051F8241008850E4850F82400008840F02C
:1030200001000B4951F824100880094850F8240089
:10303000808940F00100064951F82410888104F18C
:103040001C00C1B23046FEF79FF870BD0010024070
:10305000D400002010B5A84800683D280DDB0021F1
:103060000846FFF747FC01220C210020FFF762FB16
:10307000002208210120FFF75DFB9F48006840B156
:103080009D4800683D2804DA9B480068401C9A4926
:1030900008600120FFF7C5F804460220FFF7C1F8D9
:1030A00004440320FFF7BDF804440420FFF7B9F8F7
:1030B00004440520FFF7B5F804440620FFF7B1F8F3
:1030C00004440720FFF7ADF804440820FFF7A9F8EF
:1030D000204401280BDC89480068FA2807DBC82156
:1030E0000846FFF707FC01208349086002E107203A
:1030F000FFF797F860B10820FFF793F840B97E48D2
:10310000006828B94E2140F28D10FFF7F3FBF1E083
:103110000720FFF786F860B90820FFF782F840B96A
:103120007548006828B96E2140F28D10FFF7E2FB68
:10313000E0E00620FFF775F858B10720FFF771F8B7
:1031400038B96D48006820B9B6214800FFF7D2FBB6
:10315000D0E00620FFF765F860B90720FFF761F8B7
:1031600040B96548006828B9BC214FF4B670FFF734
:10317000C1FBBFE00520FFF754F868B10620FFF758
:1031800050F848B95C48006830B940F2371140F255
:10319000C310FFF7AFFBADE00520FFF742F868B9B9
:1031A0000620FFF73EF848B95348006830B940F2AE
:1031B0001D1140F29B10FFF79DFB9BE00420FFF7E1
:1031C00030F868B10520FFF72CF848B94A48006884
:1031D00030B94FF4FB7140F22620FFF78BFB89E0FA
:1031E0000420FFF71EF860B90520FFF71AF840B970
:1031F0004148006828B940F226210846FFF77AFBCB
:1032000078E00420FFF70DF868B90520FFF709F80A
:1032100048B13948006830B940F226214FF4FB70BC
:10322000FFF768FB66E00320FEF7FBFF68B10420B0
:10323000FEF7F7FF48B93048006830B940F29B11FB
:1032400040F21D10FFF756FB54E00320FEF7E9FFA4
:1032500068B90420FEF7E5FF48B12748006830B997
:1032600040F2C31140F23710FFF744FB42E0022066
:10327000FEF7D7FF60B90320FEF7D3FF40B91E4821
:10328000006828B94FF4B671BC20FFF733FB31E07A
:103290000220FEF7C6FF60B90320FEF7C2FF40B16F
:1032A0001548006828B94FF4B671B620FFF722FB25
:1032B00020E00120FEF7B5FF60B90220FEF7B1FF64
:1032C00040B90D48006828B940F28D116E20FFF713
:1032D00011FB0FE00120FEF7A4FF58B90220FEF712
:1032E000A0FF38B10448006820B940F28D114E208B
:1032F000FFF700FB10BD0000300000201000002090
:103300002DE9F04F89B081468A46B9F1000F01D10D
:103310001F4C00E01F4C4FEA0A1094FBF0FB58468C
:10332000FDF76FF9CDE904015046FDF759F907465D
:103330000022194BFDF765F805460E462046FDF7BD
:1033400041F90746FDF797F92A463346CDE90001D2
:10335000FDF7C9F8CDE90201DDE90423FDF74BF8DB
:10336000CDE90601FDF79AF908904FF083410898DE
:10337000FCF730FF08900898FDF769F900EB0B1097
:10338000064951F82910088109B0BDE8F08F000006
:1033900000A24A040051250200003040E000002055
:1033A00070B504460E46154634B91448806940F499
:1033B00080401249886108E01048C06904F110019A
:1033C00001228A4010430D49C861204600F01AF8D6
:1033D00031462046FFF794FF094850F824008089C1
:1033E00042F22C010843064951F82410888104F167
:1033F0002500C1B22846FDF7C7FE70BD001002408F
:10340000E000002010B5044624B1012C0DD0022CA0
:1034100021D115E0032209210020FFF7B9F8042289
:103420000A210020FFF7B4F815E003220221002052
:10343000FFF7AEF8042203210020FFF7A9F80AE005
:1034400003220A210120FFF7A3F804220B21012007
:10345000FFF79EF800BF00BF10BD00000000000095
:103460004FBB610567ACDD3F182D4454FB21E93F9C
:103470009BF681D20B73EF3F182D4454FB21F93F8B
:10348000E2652F227F2B7A3C075C143326A6813C11
:10349000BDCBF07A8807703C075C143326A6913CBC
:1034A000C4EB98999999C9BF711623FEC671BCBF28
:1034B0006D9A74AFF2B0B3BF9AFDDE522DDEADBF90
:1034C0002F6C6A2C44B4A2BF0D5555555555D53FA8
:1034D000FF8300922449C23F6E204CC5CD45B73FC3
:1034E000513DD0A0660DB13FEB0D76244B7BA93F3B
:1034F00011DA22E33AAD903F000000000000000026
:1035000020350008000000203401000004090008F4
:1035100064350008340100209C040000F01C000801
:1035200021031CFA430316010130096F12833AA6E6
:103530009B443B223F1A8004810F6E803FCDCC4CD0
:103540003D3011140801401A0C041A1004211240D5
:103550001A04041A08041A38101A44081A480401F4
:043560004700000020
:04000005080000ED02
:00000001FF
